{
  "contractName": "ERC721Enumerable",
  "abi": [
    {
      "anonymous": false,
      "inputs": [
        {
          "indexed": true,
          "internalType": "address",
          "name": "owner",
          "type": "address"
        },
        {
          "indexed": true,
          "internalType": "address",
          "name": "approved",
          "type": "address"
        },
        {
          "indexed": true,
          "internalType": "uint256",
          "name": "tokenId",
          "type": "uint256"
        }
      ],
      "name": "Approval",
      "type": "event"
    },
    {
      "anonymous": false,
      "inputs": [
        {
          "indexed": true,
          "internalType": "address",
          "name": "from",
          "type": "address"
        },
        {
          "indexed": true,
          "internalType": "address",
          "name": "to",
          "type": "address"
        },
        {
          "indexed": true,
          "internalType": "uint256",
          "name": "tokenId",
          "type": "uint256"
        }
      ],
      "name": "Transfer",
      "type": "event"
    },
    {
      "inputs": [
        {
          "internalType": "address",
          "name": "_to",
          "type": "address"
        },
        {
          "internalType": "uint256",
          "name": "_tokenId",
          "type": "uint256"
        }
      ],
      "name": "approve",
      "outputs": [],
      "stateMutability": "nonpayable",
      "type": "function"
    },
    {
      "inputs": [
        {
          "internalType": "address",
          "name": "_owner",
          "type": "address"
        }
      ],
      "name": "balanceOf",
      "outputs": [
        {
          "internalType": "uint256",
          "name": "",
          "type": "uint256"
        }
      ],
      "stateMutability": "view",
      "type": "function"
    },
    {
      "inputs": [
        {
          "internalType": "uint256",
          "name": "_tokenId",
          "type": "uint256"
        }
      ],
      "name": "ownerOf",
      "outputs": [
        {
          "internalType": "address",
          "name": "",
          "type": "address"
        }
      ],
      "stateMutability": "view",
      "type": "function"
    },
    {
      "inputs": [
        {
          "internalType": "address",
          "name": "_from",
          "type": "address"
        },
        {
          "internalType": "address",
          "name": "_to",
          "type": "address"
        },
        {
          "internalType": "uint256",
          "name": "_tokenId",
          "type": "uint256"
        }
      ],
      "name": "transferFrom",
      "outputs": [],
      "stateMutability": "nonpayable",
      "type": "function"
    },
    {
      "inputs": [
        {
          "internalType": "uint256",
          "name": "index",
          "type": "uint256"
        }
      ],
      "name": "tokenByIndex",
      "outputs": [
        {
          "internalType": "uint256",
          "name": "",
          "type": "uint256"
        }
      ],
      "stateMutability": "view",
      "type": "function"
    },
    {
      "inputs": [
        {
          "internalType": "address",
          "name": "owner",
          "type": "address"
        },
        {
          "internalType": "uint256",
          "name": "index",
          "type": "uint256"
        }
      ],
      "name": "tokenOfOwnerByIndex",
      "outputs": [
        {
          "internalType": "uint256",
          "name": "",
          "type": "uint256"
        }
      ],
      "stateMutability": "view",
      "type": "function"
    },
    {
      "inputs": [],
      "name": "totalSupply",
      "outputs": [
        {
          "internalType": "uint256",
          "name": "",
          "type": "uint256"
        }
      ],
      "stateMutability": "view",
      "type": "function"
    }
  ],
  "bytecode": "0x608060405234801561001057600080fd5b5061100f806100206000396000f3fe608060405234801561001057600080fd5b506004361061007d5760003560e01c80632f745c591161005b5780632f745c59146100d85780634f6ccce7146101085780636352211e1461013857806370a08231146101685761007d565b8063095ea7b31461008257806318160ddd1461009e57806323b872dd146100bc575b600080fd5b61009c6004803603810190610097919061099a565b610198565b005b6100a6610333565b6040516100b391906109e9565b60405180910390f35b6100d660048036038101906100d19190610a04565b610340565b005b6100f260048036038101906100ed919061099a565b610363565b6040516100ff91906109e9565b60405180910390f35b610122600480360381019061011d9190610a57565b610413565b60405161012f91906109e9565b60405180910390f35b610152600480360381019061014d9190610a57565b610490565b60405161015f9190610a93565b60405180910390f35b610182600480360381019061017d9190610aae565b610540565b60405161018f91906109e9565b60405180910390f35b60006101a382610490565b90508073ffffffffffffffffffffffffffffffffffffffff168373ffffffffffffffffffffffffffffffffffffffff1603610213576040517f08c379a000000000000000000000000000000000000000000000000000000000815260040161020a90610b5e565b60405180910390fd5b8073ffffffffffffffffffffffffffffffffffffffff163373ffffffffffffffffffffffffffffffffffffffff1614610281576040517f08c379a000000000000000000000000000000000000000000000000000000000815260040161027890610bf0565b60405180910390fd5b826002600084815260200190815260200160002060006101000a81548173ffffffffffffffffffffffffffffffffffffffff021916908373ffffffffffffffffffffffffffffffffffffffff160217905550818373ffffffffffffffffffffffffffffffffffffffff168273ffffffffffffffffffffffffffffffffffffffff167f8c5be1e5ebec7d5bd14f71427d1e84f3dd0314c0f7b2291e5b200ac8c7c3b92560405160405180910390a4505050565b6000600380549050905090565b61034a33826105f7565b61035357600080fd5b61035e838383610686565b505050565b600061036e83610540565b82106103af576040517f08c379a00000000000000000000000000000000000000000000000000000000081526004016103a690610c82565b60405180910390fd5b600560008473ffffffffffffffffffffffffffffffffffffffff1673ffffffffffffffffffffffffffffffffffffffff1681526020019081526020016000208281548110610400576103ff610ca2565b5b9060005260206000200154905092915050565b600080821015801561042b5750610428610333565b82105b61046a576040517f08c379a000000000000000000000000000000000000000000000000000000000815260040161046190610d1d565b60405180910390fd5b6003828154811061047e5761047d610ca2565b5b90600052602060002001549050919050565b60008060008084815260200190815260200160002060009054906101000a900473ffffffffffffffffffffffffffffffffffffffff169050600073ffffffffffffffffffffffffffffffffffffffff168173ffffffffffffffffffffffffffffffffffffffff1603610537576040517f08c379a000000000000000000000000000000000000000000000000000000000815260040161052e90610d89565b60405180910390fd5b80915050919050565b60008073ffffffffffffffffffffffffffffffffffffffff168273ffffffffffffffffffffffffffffffffffffffff16036105b0576040517f08c379a00000000000000000000000000000000000000000000000000000000081526004016105a790610e1b565b60405180910390fd5b600160008373ffffffffffffffffffffffffffffffffffffffff1673ffffffffffffffffffffffffffffffffffffffff168152602001908152602001600020549050919050565b600061060282610890565b610641576040517f08c379a000000000000000000000000000000000000000000000000000000000815260040161063890610e87565b60405180910390fd5b600061064c83610490565b90508073ffffffffffffffffffffffffffffffffffffffff168473ffffffffffffffffffffffffffffffffffffffff161491505092915050565b600073ffffffffffffffffffffffffffffffffffffffff168273ffffffffffffffffffffffffffffffffffffffff16036106f5576040517f08c379a00000000000000000000000000000000000000000000000000000000081526004016106ec90610f19565b60405180910390fd5b8273ffffffffffffffffffffffffffffffffffffffff1661071582610490565b73ffffffffffffffffffffffffffffffffffffffff161461073557600080fd5b8160008083815260200190815260200160002060006101000a81548173ffffffffffffffffffffffffffffffffffffffff021916908373ffffffffffffffffffffffffffffffffffffffff160217905550600160008473ffffffffffffffffffffffffffffffffffffffff1673ffffffffffffffffffffffffffffffffffffffff16815260200190815260200160002060008154809291906107d690610f68565b9190505550600160008373ffffffffffffffffffffffffffffffffffffffff1673ffffffffffffffffffffffffffffffffffffffff168152602001908152602001600020600081548092919061082b90610f91565b9190505550808273ffffffffffffffffffffffffffffffffffffffff168473ffffffffffffffffffffffffffffffffffffffff167fddf252ad1be2c89b69c2b068fc378daa952ba7f163c4a11628f55a4df523b3ef60405160405180910390a4505050565b60008060008084815260200190815260200160002060009054906101000a900473ffffffffffffffffffffffffffffffffffffffff169050600073ffffffffffffffffffffffffffffffffffffffff168173ffffffffffffffffffffffffffffffffffffffff161415915050919050565b600080fd5b600073ffffffffffffffffffffffffffffffffffffffff82169050919050565b600061093182610906565b9050919050565b61094181610926565b811461094c57600080fd5b50565b60008135905061095e81610938565b92915050565b6000819050919050565b61097781610964565b811461098257600080fd5b50565b6000813590506109948161096e565b92915050565b600080604083850312156109b1576109b0610901565b5b60006109bf8582860161094f565b92505060206109d085828601610985565b9150509250929050565b6109e381610964565b82525050565b60006020820190506109fe60008301846109da565b92915050565b600080600060608486031215610a1d57610a1c610901565b5b6000610a2b8682870161094f565b9350506020610a3c8682870161094f565b9250506040610a4d86828701610985565b9150509250925092565b600060208284031215610a6d57610a6c610901565b5b6000610a7b84828501610985565b91505092915050565b610a8d81610926565b82525050565b6000602082019050610aa86000830184610a84565b92915050565b600060208284031215610ac457610ac3610901565b5b6000610ad28482850161094f565b91505092915050565b600082825260208201905092915050565b7f4572726f72203a2063616e7420617070726f766520746f2063757272656e742060008201527f6f776e6572000000000000000000000000000000000000000000000000000000602082015250565b6000610b48602583610adb565b9150610b5382610aec565b604082019050919050565b60006020820190508181036000830152610b7781610b3b565b9050919050565b7f43757272656e742063616c6c657220646f6573206e6f74206f776e207468652060008201527f746f6b656e000000000000000000000000000000000000000000000000000000602082015250565b6000610bda602583610adb565b9150610be582610b7e565b604082019050919050565b60006020820190508181036000830152610c0981610bcd565b9050919050565b7f4572726f72203a206f776e657220646f6573206e6f742068617665207468617460008201527f206d616e79204e46547300000000000000000000000000000000000000000000602082015250565b6000610c6c602a83610adb565b9150610c7782610c10565b604082019050919050565b60006020820190508181036000830152610c9b81610c5f565b9050919050565b7f4e487b7100000000000000000000000000000000000000000000000000000000600052603260045260246000fd5b7f696e646578206973206f7574206f6620626f756e647300000000000000000000600082015250565b6000610d07601683610adb565b9150610d1282610cd1565b602082019050919050565b60006020820190508181036000830152610d3681610cfa565b9050919050565b7f746865206f776e657220666f7220746869732071756572792069732030000000600082015250565b6000610d73601d83610adb565b9150610d7e82610d3d565b602082019050919050565b60006020820190508181036000830152610da281610d66565b9050919050565b7f4572726f72203a206f776e657220616464726573732063616e206e6f7420657160008201527f75616c2027302700000000000000000000000000000000000000000000000000602082015250565b6000610e05602783610adb565b9150610e1082610da9565b604082019050919050565b60006020820190508181036000830152610e3481610df8565b9050919050565b7f746f6b656e20646f6573206e6f74206578697374000000000000000000000000600082015250565b6000610e71601483610adb565b9150610e7c82610e3b565b602082019050919050565b60006020820190508181036000830152610ea081610e64565b9050919050565b7f4572726f72203a207472616e7366657220746f2074686520302061646472657360008201527f7300000000000000000000000000000000000000000000000000000000000000602082015250565b6000610f03602183610adb565b9150610f0e82610ea7565b604082019050919050565b60006020820190508181036000830152610f3281610ef6565b9050919050565b7f4e487b7100000000000000000000000000000000000000000000000000000000600052601160045260246000fd5b6000610f7382610964565b915060008203610f8657610f85610f39565b5b600182039050919050565b6000610f9c82610964565b91507fffffffffffffffffffffffffffffffffffffffffffffffffffffffffffffffff8203610fce57610fcd610f39565b5b60018201905091905056fea26469706673582212202ca84d28ff8d1028a0ef01d018793ab3571e1996ff340bfa1aa8f3e2a06988bb64736f6c634300080d0033",
  "immutableReferences": {},
  "source": "// SPDX-License-Identifier: MIT\npragma solidity >0.8.0; \n\nimport './ERC721.sol';\n\n/// @title ERC-721 Non-Fungible Token Standard, optional enumeration extension\n/// @dev See https://eips.ethereum.org/EIPS/eip-721\n///  Note: the ERC-165 identifier for this interface is 0x780e9d63.\ncontract ERC721Enumerable is ERC721 {\n\n    uint256[] private _allTokens;\n\n    // map from tokenId to position in _allTokens array\n    mapping(uint256 => uint256) internal _allTokensIndex; \n\n    // map from owner to list of all owner token ids \n    mapping(address => uint256[]) internal _ownedTokens; \n\n    // map from token ID index of the owner tokens list \n    mapping(uint256 => uint256) internal _ownedTokensIndex; \n\n    function _mint(address to, uint256 tokenId) internal override(ERC721) {\n        super._mint(to, tokenId); \n        // 1. add tokens to the owner\n        _addTokensToAllTokenEnumeration(tokenId);\n\n        // 2. add tokens to our total suppy - to allTokens \n        _addTokensToOwnerEnumeration(to, tokenId);\n    }\n\n    // add tokens to the _allTokens array and set position of the token\n    function _addTokensToAllTokenEnumeration(uint256 tokenId) private {\n        _allTokensIndex[tokenId] = _allTokens.length; \n        _allTokens.push(tokenId); \n    }\n\n    function _addTokensToOwnerEnumeration(address to, uint tokenId) private {\n        // add address and token id to the _ownedTokens\n        _ownedTokens[to].push(tokenId); \n\n        // ownedTokensIndex tokenId set to address fo ownedTokens position \n        _ownedTokensIndex[tokenId] = _ownedTokens[to].length - 1;\n\n        // execute the function with minting\n\n    }\n\n    // two functions ; one to return token by index and another to return token of owner by index \n    function tokenByIndex(uint256 index) public view returns(uint256) {\n        require(index >= 0 && index < totalSupply(), 'index is out of bounds'); \n        return _allTokens[index]; \n    }\n\n    function tokenOfOwnerByIndex(address owner, uint index) public view returns(uint256) {\n        require(index < balanceOf(owner), 'Error : owner does not have that many NFTs');\n        return _ownedTokens[owner][index]; \n    }\n\n    // return total supply of the _allTokens array\n    function totalSupply() public view returns(uint256) {\n        return _allTokens.length;\n    }\n}",
  "sourcePath": "/Users/jeffreylamothe/Workspace/nft-marketplace/src/contracts/ERC721Enumerable.sol",
  "compiler": {
    "name": "solc",
    "version": "0.8.13+commit.abaa5c0e.Emscripten.clang"
  },
  "schemaVersion": "3.4.6",
  "updatedAt": "2022-03-22T12:47:50.151Z",
  "devdoc": {
    "details": "See https://eips.ethereum.org/EIPS/eip-721  Note: the ERC-165 identifier for this interface is 0x780e9d63.",
    "kind": "dev",
    "methods": {},
    "title": "ERC-721 Non-Fungible Token Standard, optional enumeration extension",
    "version": 1
  },
  "userdoc": {
    "kind": "user",
    "methods": {},
    "version": 1
  }
}