{
  "contractName": "ERC721",
  "abi": [
    {
      "anonymous": false,
      "inputs": [
        {
          "indexed": true,
          "internalType": "address",
          "name": "owner",
          "type": "address"
        },
        {
          "indexed": true,
          "internalType": "address",
          "name": "approved",
          "type": "address"
        },
        {
          "indexed": true,
          "internalType": "uint256",
          "name": "tokenId",
          "type": "uint256"
        }
      ],
      "name": "Approval",
      "type": "event"
    },
    {
      "anonymous": false,
      "inputs": [
        {
          "indexed": true,
          "internalType": "address",
          "name": "from",
          "type": "address"
        },
        {
          "indexed": true,
          "internalType": "address",
          "name": "to",
          "type": "address"
        },
        {
          "indexed": true,
          "internalType": "uint256",
          "name": "tokenId",
          "type": "uint256"
        }
      ],
      "name": "Transfer",
      "type": "event"
    },
    {
      "inputs": [
        {
          "internalType": "address",
          "name": "_owner",
          "type": "address"
        }
      ],
      "name": "balanceOf",
      "outputs": [
        {
          "internalType": "uint256",
          "name": "",
          "type": "uint256"
        }
      ],
      "stateMutability": "view",
      "type": "function"
    },
    {
      "inputs": [
        {
          "internalType": "uint256",
          "name": "_tokenId",
          "type": "uint256"
        }
      ],
      "name": "ownerOf",
      "outputs": [
        {
          "internalType": "address",
          "name": "",
          "type": "address"
        }
      ],
      "stateMutability": "view",
      "type": "function"
    },
    {
      "inputs": [
        {
          "internalType": "address",
          "name": "_from",
          "type": "address"
        },
        {
          "internalType": "address",
          "name": "_to",
          "type": "address"
        },
        {
          "internalType": "uint256",
          "name": "_tokenId",
          "type": "uint256"
        }
      ],
      "name": "transferFrom",
      "outputs": [],
      "stateMutability": "nonpayable",
      "type": "function"
    },
    {
      "inputs": [
        {
          "internalType": "address",
          "name": "_to",
          "type": "address"
        },
        {
          "internalType": "uint256",
          "name": "_tokenId",
          "type": "uint256"
        }
      ],
      "name": "approve",
      "outputs": [],
      "stateMutability": "nonpayable",
      "type": "function"
    }
  ],
  "bytecode": "0x608060405234801561001057600080fd5b50610cf9806100206000396000f3fe608060405234801561001057600080fd5b506004361061004c5760003560e01c8063095ea7b31461005157806323b872dd1461006d5780636352211e1461008957806370a08231146100b9575b600080fd5b61006b600480360381019061006691906107b1565b6100e9565b005b610087600480360381019061008291906107f1565b610284565b005b6100a3600480360381019061009e9190610844565b6102a7565b6040516100b09190610880565b60405180910390f35b6100d360048036038101906100ce919061089b565b610357565b6040516100e091906108d7565b60405180910390f35b60006100f4826102a7565b90508073ffffffffffffffffffffffffffffffffffffffff168373ffffffffffffffffffffffffffffffffffffffff1603610164576040517f08c379a000000000000000000000000000000000000000000000000000000000815260040161015b90610975565b60405180910390fd5b8073ffffffffffffffffffffffffffffffffffffffff163373ffffffffffffffffffffffffffffffffffffffff16146101d2576040517f08c379a00000000000000000000000000000000000000000000000000000000081526004016101c990610a07565b60405180910390fd5b826002600084815260200190815260200160002060006101000a81548173ffffffffffffffffffffffffffffffffffffffff021916908373ffffffffffffffffffffffffffffffffffffffff160217905550818373ffffffffffffffffffffffffffffffffffffffff168273ffffffffffffffffffffffffffffffffffffffff167f8c5be1e5ebec7d5bd14f71427d1e84f3dd0314c0f7b2291e5b200ac8c7c3b92560405160405180910390a4505050565b61028e338261040e565b61029757600080fd5b6102a283838361049d565b505050565b60008060008084815260200190815260200160002060009054906101000a900473ffffffffffffffffffffffffffffffffffffffff169050600073ffffffffffffffffffffffffffffffffffffffff168173ffffffffffffffffffffffffffffffffffffffff160361034e576040517f08c379a000000000000000000000000000000000000000000000000000000000815260040161034590610a73565b60405180910390fd5b80915050919050565b60008073ffffffffffffffffffffffffffffffffffffffff168273ffffffffffffffffffffffffffffffffffffffff16036103c7576040517f08c379a00000000000000000000000000000000000000000000000000000000081526004016103be90610b05565b60405180910390fd5b600160008373ffffffffffffffffffffffffffffffffffffffff1673ffffffffffffffffffffffffffffffffffffffff168152602001908152602001600020549050919050565b6000610419826106a7565b610458576040517f08c379a000000000000000000000000000000000000000000000000000000000815260040161044f90610b71565b60405180910390fd5b6000610463836102a7565b90508073ffffffffffffffffffffffffffffffffffffffff168473ffffffffffffffffffffffffffffffffffffffff161491505092915050565b600073ffffffffffffffffffffffffffffffffffffffff168273ffffffffffffffffffffffffffffffffffffffff160361050c576040517f08c379a000000000000000000000000000000000000000000000000000000000815260040161050390610c03565b60405180910390fd5b8273ffffffffffffffffffffffffffffffffffffffff1661052c826102a7565b73ffffffffffffffffffffffffffffffffffffffff161461054c57600080fd5b8160008083815260200190815260200160002060006101000a81548173ffffffffffffffffffffffffffffffffffffffff021916908373ffffffffffffffffffffffffffffffffffffffff160217905550600160008473ffffffffffffffffffffffffffffffffffffffff1673ffffffffffffffffffffffffffffffffffffffff16815260200190815260200160002060008154809291906105ed90610c52565b9190505550600160008373ffffffffffffffffffffffffffffffffffffffff1673ffffffffffffffffffffffffffffffffffffffff168152602001908152602001600020600081548092919061064290610c7b565b9190505550808273ffffffffffffffffffffffffffffffffffffffff168473ffffffffffffffffffffffffffffffffffffffff167fddf252ad1be2c89b69c2b068fc378daa952ba7f163c4a11628f55a4df523b3ef60405160405180910390a4505050565b60008060008084815260200190815260200160002060009054906101000a900473ffffffffffffffffffffffffffffffffffffffff169050600073ffffffffffffffffffffffffffffffffffffffff168173ffffffffffffffffffffffffffffffffffffffff161415915050919050565b600080fd5b600073ffffffffffffffffffffffffffffffffffffffff82169050919050565b60006107488261071d565b9050919050565b6107588161073d565b811461076357600080fd5b50565b6000813590506107758161074f565b92915050565b6000819050919050565b61078e8161077b565b811461079957600080fd5b50565b6000813590506107ab81610785565b92915050565b600080604083850312156107c8576107c7610718565b5b60006107d685828601610766565b92505060206107e78582860161079c565b9150509250929050565b60008060006060848603121561080a57610809610718565b5b600061081886828701610766565b935050602061082986828701610766565b925050604061083a8682870161079c565b9150509250925092565b60006020828403121561085a57610859610718565b5b60006108688482850161079c565b91505092915050565b61087a8161073d565b82525050565b60006020820190506108956000830184610871565b92915050565b6000602082840312156108b1576108b0610718565b5b60006108bf84828501610766565b91505092915050565b6108d18161077b565b82525050565b60006020820190506108ec60008301846108c8565b92915050565b600082825260208201905092915050565b7f4572726f72203a2063616e7420617070726f766520746f2063757272656e742060008201527f6f776e6572000000000000000000000000000000000000000000000000000000602082015250565b600061095f6025836108f2565b915061096a82610903565b604082019050919050565b6000602082019050818103600083015261098e81610952565b9050919050565b7f43757272656e742063616c6c657220646f6573206e6f74206f776e207468652060008201527f746f6b656e000000000000000000000000000000000000000000000000000000602082015250565b60006109f16025836108f2565b91506109fc82610995565b604082019050919050565b60006020820190508181036000830152610a20816109e4565b9050919050565b7f746865206f776e657220666f7220746869732071756572792069732030000000600082015250565b6000610a5d601d836108f2565b9150610a6882610a27565b602082019050919050565b60006020820190508181036000830152610a8c81610a50565b9050919050565b7f4572726f72203a206f776e657220616464726573732063616e206e6f7420657160008201527f75616c2027302700000000000000000000000000000000000000000000000000602082015250565b6000610aef6027836108f2565b9150610afa82610a93565b604082019050919050565b60006020820190508181036000830152610b1e81610ae2565b9050919050565b7f746f6b656e20646f6573206e6f74206578697374000000000000000000000000600082015250565b6000610b5b6014836108f2565b9150610b6682610b25565b602082019050919050565b60006020820190508181036000830152610b8a81610b4e565b9050919050565b7f4572726f72203a207472616e7366657220746f2074686520302061646472657360008201527f7300000000000000000000000000000000000000000000000000000000000000602082015250565b6000610bed6021836108f2565b9150610bf882610b91565b604082019050919050565b60006020820190508181036000830152610c1c81610be0565b9050919050565b7f4e487b7100000000000000000000000000000000000000000000000000000000600052601160045260246000fd5b6000610c5d8261077b565b915060008203610c7057610c6f610c23565b5b600182039050919050565b6000610c868261077b565b91507fffffffffffffffffffffffffffffffffffffffffffffffffffffffffffffffff8203610cb857610cb7610c23565b5b60018201905091905056fea2646970667358221220708b267134db43546806c398559dd6f07c75e06cf9c4122e2d774ed5774c6bf564736f6c634300080d0033",
  "immutableReferences": {},
  "source": "// SPDX-License-Identifier: MIT\npragma solidity >0.8.0; \n\ncontract ERC721 {\n    /*\n    Minting function : \n        1. NFT to point to ad address \n        2. Keep track of the token ids\n        3. Keep track of token owner addresses to token ids \n        4. Keep track of how many tokens an owner address has \n        5. create an event that emits a transfer log - contract address , where it is being minted to, the id\n    */ \n\n    event Transfer(address indexed from, address indexed to, uint256 indexed tokenId); \n\n    event Approval(address indexed owner, address indexed approved, uint256 indexed tokenId); \n\n    // mapping from token id to the owner\n    mapping(uint256 => address) private _tokenOwner; \n\n    // mapping from owner to number of owned tokens\n    mapping(address => uint256) private _ownedTokensCount;\n\n    // mapping from token id to approved addresses \n    mapping(uint256 => address) private _tokenApprovals;\n\n    function balanceOf(address _owner) public view returns(uint256) {\n        require(_owner != address(0), \"Error : owner address can not equal '0'\");\n        return _ownedTokensCount[_owner]; \n    }\n\n    function ownerOf(uint256 _tokenId) public view returns(address) {\n        address owner = _tokenOwner[_tokenId]; \n        require(owner != address(0), \"the owner for this query is 0\"); \n        return owner;\n    }\n\n    function _exists(uint256 tokenId) internal view returns(bool) {\n        address owner = _tokenOwner[tokenId]; \n        return owner != address(0); \n    }\n\n    function _mint(address _to, uint _tokenId) internal virtual {\n\n        require(_to != address(0), \"Can not mint to address '0'\"); \n        require(!_exists(_tokenId), \"A token with this id has already been minted\");     \n\n        _tokenOwner[_tokenId] = _to; \n        _ownedTokensCount[_to] += 1; \n\n        emit Transfer(address(0), _to, _tokenId);\n    }\n\n     /// @notice Transfer ownership of an NFT -- THE CALLER IS RESPONSIBLE\n    ///  TO CONFIRM THAT `_to` IS CAPABLE OF RECEIVING NFTS OR ELSE\n    ///  THEY MAY BE PERMANENTLY LOST\n    /// @dev Throws unless `msg.sender` is the current owner, an authorized\n    ///  operator, or the approved address for this NFT. Throws if `_from` is\n    ///  not the current owner. Throws if `_to` is the zero address. Throws if\n    ///  `_tokenId` is not a valid NFT.\n    /// @param _from The current owner of the NFT\n    /// @param _to The new owner\n    /// @param _tokenId The NFT to transfer\n    function _transferFrom(address _from, address _to, uint256 _tokenId) internal {\n        require(_to != address(0), 'Error : transfer to the 0 address'); \n        require(ownerOf(_tokenId) == _from); \n\n        // add the token id to the address receiving the token \n        _tokenOwner[_tokenId] = _to; \n    \n        // update the balance of the address from token\n        _ownedTokensCount[_from]--; \n     \n        // update the balance of the address too token\n        _ownedTokensCount[_to]++; \n        \n        emit Transfer(_from, _to, _tokenId); \n    }\n\n    function transferFrom(address _from, address _to, uint256 _tokenId) public {\n        require(isApprovedOrOwner(msg.sender, _tokenId)); \n        _transferFrom(_from, _to, _tokenId); \n    }\n\n    function approve(address _to, uint256 _tokenId) public {\n        // require the person approving is the owner \n        // approve an address to a token \n        // require that we cant approve wsending tokens of the owner to the owner (current caller)\n        // update the map of the approval addresses \n\n        address owner = ownerOf(_tokenId); \n        require(_to != owner, 'Error : cant approve to current owner'); \n        require(msg.sender == owner, 'Current caller does not own the token'); \n        _tokenApprovals[_tokenId] = _to; \n        emit Approval(owner, _to, _tokenId); \n    }\n\n    function isApprovedOrOwner(address spender, uint256 tokenId) internal view returns(bool) {\n        require(_exists(tokenId), 'token does not exist'); \n        address owner = ownerOf(tokenId); \n        return (spender == owner); \n        // optional bonus : extend to check if the sender is approved (reference OpenZeppelin)\n    }\n}",
  "sourcePath": "/Users/jeffreylamothe/Workspace/nft-marketplace/src/contracts/ERC721.sol",
  "compiler": {
    "name": "solc",
    "version": "0.8.13+commit.abaa5c0e.Emscripten.clang"
  },
  "schemaVersion": "3.4.6",
  "updatedAt": "2022-03-22T12:47:50.146Z",
  "devdoc": {
    "kind": "dev",
    "methods": {},
    "version": 1
  },
  "userdoc": {
    "kind": "user",
    "methods": {},
    "version": 1
  }
}