{
  "contractName": "ERC721Connector",
  "abi": [
    {
      "inputs": [
        {
          "internalType": "string",
          "name": "name",
          "type": "string"
        },
        {
          "internalType": "string",
          "name": "symbol",
          "type": "string"
        }
      ],
      "stateMutability": "nonpayable",
      "type": "constructor"
    },
    {
      "anonymous": false,
      "inputs": [
        {
          "indexed": true,
          "internalType": "address",
          "name": "owner",
          "type": "address"
        },
        {
          "indexed": true,
          "internalType": "address",
          "name": "approved",
          "type": "address"
        },
        {
          "indexed": true,
          "internalType": "uint256",
          "name": "tokenId",
          "type": "uint256"
        }
      ],
      "name": "Approval",
      "type": "event"
    },
    {
      "anonymous": false,
      "inputs": [
        {
          "indexed": true,
          "internalType": "address",
          "name": "from",
          "type": "address"
        },
        {
          "indexed": true,
          "internalType": "address",
          "name": "to",
          "type": "address"
        },
        {
          "indexed": true,
          "internalType": "uint256",
          "name": "tokenId",
          "type": "uint256"
        }
      ],
      "name": "Transfer",
      "type": "event"
    },
    {
      "inputs": [
        {
          "internalType": "address",
          "name": "_to",
          "type": "address"
        },
        {
          "internalType": "uint256",
          "name": "_tokenId",
          "type": "uint256"
        }
      ],
      "name": "approve",
      "outputs": [],
      "stateMutability": "nonpayable",
      "type": "function"
    },
    {
      "inputs": [
        {
          "internalType": "address",
          "name": "_owner",
          "type": "address"
        }
      ],
      "name": "balanceOf",
      "outputs": [
        {
          "internalType": "uint256",
          "name": "",
          "type": "uint256"
        }
      ],
      "stateMutability": "view",
      "type": "function"
    },
    {
      "inputs": [],
      "name": "name",
      "outputs": [
        {
          "internalType": "string",
          "name": "",
          "type": "string"
        }
      ],
      "stateMutability": "view",
      "type": "function"
    },
    {
      "inputs": [
        {
          "internalType": "uint256",
          "name": "_tokenId",
          "type": "uint256"
        }
      ],
      "name": "ownerOf",
      "outputs": [
        {
          "internalType": "address",
          "name": "",
          "type": "address"
        }
      ],
      "stateMutability": "view",
      "type": "function"
    },
    {
      "inputs": [],
      "name": "symbol",
      "outputs": [
        {
          "internalType": "string",
          "name": "",
          "type": "string"
        }
      ],
      "stateMutability": "view",
      "type": "function"
    },
    {
      "inputs": [
        {
          "internalType": "uint256",
          "name": "index",
          "type": "uint256"
        }
      ],
      "name": "tokenByIndex",
      "outputs": [
        {
          "internalType": "uint256",
          "name": "",
          "type": "uint256"
        }
      ],
      "stateMutability": "view",
      "type": "function"
    },
    {
      "inputs": [
        {
          "internalType": "address",
          "name": "owner",
          "type": "address"
        },
        {
          "internalType": "uint256",
          "name": "index",
          "type": "uint256"
        }
      ],
      "name": "tokenOfOwnerByIndex",
      "outputs": [
        {
          "internalType": "uint256",
          "name": "",
          "type": "uint256"
        }
      ],
      "stateMutability": "view",
      "type": "function"
    },
    {
      "inputs": [],
      "name": "totalSupply",
      "outputs": [
        {
          "internalType": "uint256",
          "name": "",
          "type": "uint256"
        }
      ],
      "stateMutability": "view",
      "type": "function"
    },
    {
      "inputs": [
        {
          "internalType": "address",
          "name": "_from",
          "type": "address"
        },
        {
          "internalType": "address",
          "name": "_to",
          "type": "address"
        },
        {
          "internalType": "uint256",
          "name": "_tokenId",
          "type": "uint256"
        }
      ],
      "name": "transferFrom",
      "outputs": [],
      "stateMutability": "nonpayable",
      "type": "function"
    }
  ],
  "bytecode": "0x60806040523480156200001157600080fd5b506040516200164d3803806200164d8339818101604052810190620000379190620002c2565b818181600090805190602001906200005192919062000075565b5080600190805190602001906200006a92919062000075565b5050505050620003ab565b828054620000839062000376565b90600052602060002090601f016020900481019282620000a75760008555620000f3565b82601f10620000c257805160ff1916838001178555620000f3565b82800160010185558215620000f3579182015b82811115620000f2578251825591602001919060010190620000d5565b5b50905062000102919062000106565b5090565b5b808211156200012157600081600090555060010162000107565b5090565b6000604051905090565b600080fd5b600080fd5b600080fd5b600080fd5b6000601f19601f8301169050919050565b7f4e487b7100000000000000000000000000000000000000000000000000000000600052604160045260246000fd5b6200018e8262000143565b810181811067ffffffffffffffff82111715620001b057620001af62000154565b5b80604052505050565b6000620001c562000125565b9050620001d3828262000183565b919050565b600067ffffffffffffffff821115620001f657620001f562000154565b5b620002018262000143565b9050602081019050919050565b60005b838110156200022e57808201518184015260208101905062000211565b838111156200023e576000848401525b50505050565b60006200025b6200025584620001d8565b620001b9565b9050828152602081018484840111156200027a57620002796200013e565b5b620002878482856200020e565b509392505050565b600082601f830112620002a757620002a662000139565b5b8151620002b984826020860162000244565b91505092915050565b60008060408385031215620002dc57620002db6200012f565b5b600083015167ffffffffffffffff811115620002fd57620002fc62000134565b5b6200030b858286016200028f565b925050602083015167ffffffffffffffff8111156200032f576200032e62000134565b5b6200033d858286016200028f565b9150509250929050565b7f4e487b7100000000000000000000000000000000000000000000000000000000600052602260045260246000fd5b600060028204905060018216806200038f57607f821691505b602082108103620003a557620003a462000347565b5b50919050565b61129280620003bb6000396000f3fe608060405234801561001057600080fd5b50600436106100935760003560e01c80632f745c59116100665780632f745c591461010c5780634f6ccce71461013c5780636352211e1461016c57806370a082311461019c57806395d89b41146101cc57610093565b806306fdde0314610098578063095ea7b3146100b657806318160ddd146100d257806323b872dd146100f0575b600080fd5b6100a06101ea565b6040516100ad9190610b13565b60405180910390f35b6100d060048036038101906100cb9190610bce565b61027c565b005b6100da610417565b6040516100e79190610c1d565b60405180910390f35b61010a60048036038101906101059190610c38565b610424565b005b61012660048036038101906101219190610bce565b610447565b6040516101339190610c1d565b60405180910390f35b61015660048036038101906101519190610c8b565b6104f7565b6040516101639190610c1d565b60405180910390f35b61018660048036038101906101819190610c8b565b610574565b6040516101939190610cc7565b60405180910390f35b6101b660048036038101906101b19190610ce2565b610625565b6040516101c39190610c1d565b60405180910390f35b6101d46106dc565b6040516101e19190610b13565b60405180910390f35b6060600080546101f990610d3e565b80601f016020809104026020016040519081016040528092919081815260200182805461022590610d3e565b80156102725780601f1061024757610100808354040283529160200191610272565b820191906000526020600020905b81548152906001019060200180831161025557829003601f168201915b5050505050905090565b600061028782610574565b90508073ffffffffffffffffffffffffffffffffffffffff168373ffffffffffffffffffffffffffffffffffffffff16036102f7576040517f08c379a00000000000000000000000000000000000000000000000000000000081526004016102ee90610de1565b60405180910390fd5b8073ffffffffffffffffffffffffffffffffffffffff163373ffffffffffffffffffffffffffffffffffffffff1614610365576040517f08c379a000000000000000000000000000000000000000000000000000000000815260040161035c90610e73565b60405180910390fd5b826004600084815260200190815260200160002060006101000a81548173ffffffffffffffffffffffffffffffffffffffff021916908373ffffffffffffffffffffffffffffffffffffffff160217905550818373ffffffffffffffffffffffffffffffffffffffff168273ffffffffffffffffffffffffffffffffffffffff167f8c5be1e5ebec7d5bd14f71427d1e84f3dd0314c0f7b2291e5b200ac8c7c3b92560405160405180910390a4505050565b6000600580549050905090565b61042e338261076e565b61043757600080fd5b6104428383836107fd565b505050565b600061045283610625565b8210610493576040517f08c379a000000000000000000000000000000000000000000000000000000000815260040161048a90610f05565b60405180910390fd5b600760008473ffffffffffffffffffffffffffffffffffffffff1673ffffffffffffffffffffffffffffffffffffffff16815260200190815260200160002082815481106104e4576104e3610f25565b5b9060005260206000200154905092915050565b600080821015801561050f575061050c610417565b82105b61054e576040517f08c379a000000000000000000000000000000000000000000000000000000000815260040161054590610fa0565b60405180910390fd5b6005828154811061056257610561610f25565b5b90600052602060002001549050919050565b6000806002600084815260200190815260200160002060009054906101000a900473ffffffffffffffffffffffffffffffffffffffff169050600073ffffffffffffffffffffffffffffffffffffffff168173ffffffffffffffffffffffffffffffffffffffff160361061c576040517f08c379a00000000000000000000000000000000000000000000000000000000081526004016106139061100c565b60405180910390fd5b80915050919050565b60008073ffffffffffffffffffffffffffffffffffffffff168273ffffffffffffffffffffffffffffffffffffffff1603610695576040517f08c379a000000000000000000000000000000000000000000000000000000000815260040161068c9061109e565b60405180910390fd5b600360008373ffffffffffffffffffffffffffffffffffffffff1673ffffffffffffffffffffffffffffffffffffffff168152602001908152602001600020549050919050565b6060600180546106eb90610d3e565b80601f016020809104026020016040519081016040528092919081815260200182805461071790610d3e565b80156107645780601f1061073957610100808354040283529160200191610764565b820191906000526020600020905b81548152906001019060200180831161074757829003601f168201915b5050505050905090565b600061077982610a08565b6107b8576040517f08c379a00000000000000000000000000000000000000000000000000000000081526004016107af9061110a565b60405180910390fd5b60006107c383610574565b90508073ffffffffffffffffffffffffffffffffffffffff168473ffffffffffffffffffffffffffffffffffffffff161491505092915050565b600073ffffffffffffffffffffffffffffffffffffffff168273ffffffffffffffffffffffffffffffffffffffff160361086c576040517f08c379a00000000000000000000000000000000000000000000000000000000081526004016108639061119c565b60405180910390fd5b8273ffffffffffffffffffffffffffffffffffffffff1661088c82610574565b73ffffffffffffffffffffffffffffffffffffffff16146108ac57600080fd5b816002600083815260200190815260200160002060006101000a81548173ffffffffffffffffffffffffffffffffffffffff021916908373ffffffffffffffffffffffffffffffffffffffff160217905550600360008473ffffffffffffffffffffffffffffffffffffffff1673ffffffffffffffffffffffffffffffffffffffff168152602001908152602001600020600081548092919061094e906111eb565b9190505550600360008373ffffffffffffffffffffffffffffffffffffffff1673ffffffffffffffffffffffffffffffffffffffff16815260200190815260200160002060008154809291906109a390611214565b9190505550808273ffffffffffffffffffffffffffffffffffffffff168473ffffffffffffffffffffffffffffffffffffffff167fddf252ad1be2c89b69c2b068fc378daa952ba7f163c4a11628f55a4df523b3ef60405160405180910390a4505050565b6000806002600084815260200190815260200160002060009054906101000a900473ffffffffffffffffffffffffffffffffffffffff169050600073ffffffffffffffffffffffffffffffffffffffff168173ffffffffffffffffffffffffffffffffffffffff161415915050919050565b600081519050919050565b600082825260208201905092915050565b60005b83811015610ab4578082015181840152602081019050610a99565b83811115610ac3576000848401525b50505050565b6000601f19601f8301169050919050565b6000610ae582610a7a565b610aef8185610a85565b9350610aff818560208601610a96565b610b0881610ac9565b840191505092915050565b60006020820190508181036000830152610b2d8184610ada565b905092915050565b600080fd5b600073ffffffffffffffffffffffffffffffffffffffff82169050919050565b6000610b6582610b3a565b9050919050565b610b7581610b5a565b8114610b8057600080fd5b50565b600081359050610b9281610b6c565b92915050565b6000819050919050565b610bab81610b98565b8114610bb657600080fd5b50565b600081359050610bc881610ba2565b92915050565b60008060408385031215610be557610be4610b35565b5b6000610bf385828601610b83565b9250506020610c0485828601610bb9565b9150509250929050565b610c1781610b98565b82525050565b6000602082019050610c326000830184610c0e565b92915050565b600080600060608486031215610c5157610c50610b35565b5b6000610c5f86828701610b83565b9350506020610c7086828701610b83565b9250506040610c8186828701610bb9565b9150509250925092565b600060208284031215610ca157610ca0610b35565b5b6000610caf84828501610bb9565b91505092915050565b610cc181610b5a565b82525050565b6000602082019050610cdc6000830184610cb8565b92915050565b600060208284031215610cf857610cf7610b35565b5b6000610d0684828501610b83565b91505092915050565b7f4e487b7100000000000000000000000000000000000000000000000000000000600052602260045260246000fd5b60006002820490506001821680610d5657607f821691505b602082108103610d6957610d68610d0f565b5b50919050565b7f4572726f72203a2063616e7420617070726f766520746f2063757272656e742060008201527f6f776e6572000000000000000000000000000000000000000000000000000000602082015250565b6000610dcb602583610a85565b9150610dd682610d6f565b604082019050919050565b60006020820190508181036000830152610dfa81610dbe565b9050919050565b7f43757272656e742063616c6c657220646f6573206e6f74206f776e207468652060008201527f746f6b656e000000000000000000000000000000000000000000000000000000602082015250565b6000610e5d602583610a85565b9150610e6882610e01565b604082019050919050565b60006020820190508181036000830152610e8c81610e50565b9050919050565b7f4572726f72203a206f776e657220646f6573206e6f742068617665207468617460008201527f206d616e79204e46547300000000000000000000000000000000000000000000602082015250565b6000610eef602a83610a85565b9150610efa82610e93565b604082019050919050565b60006020820190508181036000830152610f1e81610ee2565b9050919050565b7f4e487b7100000000000000000000000000000000000000000000000000000000600052603260045260246000fd5b7f696e646578206973206f7574206f6620626f756e647300000000000000000000600082015250565b6000610f8a601683610a85565b9150610f9582610f54565b602082019050919050565b60006020820190508181036000830152610fb981610f7d565b9050919050565b7f746865206f776e657220666f7220746869732071756572792069732030000000600082015250565b6000610ff6601d83610a85565b915061100182610fc0565b602082019050919050565b6000602082019050818103600083015261102581610fe9565b9050919050565b7f4572726f72203a206f776e657220616464726573732063616e206e6f7420657160008201527f75616c2027302700000000000000000000000000000000000000000000000000602082015250565b6000611088602783610a85565b91506110938261102c565b604082019050919050565b600060208201905081810360008301526110b78161107b565b9050919050565b7f746f6b656e20646f6573206e6f74206578697374000000000000000000000000600082015250565b60006110f4601483610a85565b91506110ff826110be565b602082019050919050565b60006020820190508181036000830152611123816110e7565b9050919050565b7f4572726f72203a207472616e7366657220746f2074686520302061646472657360008201527f7300000000000000000000000000000000000000000000000000000000000000602082015250565b6000611186602183610a85565b91506111918261112a565b604082019050919050565b600060208201905081810360008301526111b581611179565b9050919050565b7f4e487b7100000000000000000000000000000000000000000000000000000000600052601160045260246000fd5b60006111f682610b98565b915060008203611209576112086111bc565b5b600182039050919050565b600061121f82610b98565b91507fffffffffffffffffffffffffffffffffffffffffffffffffffffffffffffffff8203611251576112506111bc565b5b60018201905091905056fea264697066735822122002ed8a6c00fe5ea741419a15dc36c2326d60955396bb1ba49a5860cc25e6b99e64736f6c634300080d0033",
  "immutableReferences": {},
  "source": "// SPDX-License-Identifier: MIT\npragma solidity >0.8.0; \n\nimport './ERC721Metadata.sol'; \nimport './ERC721.sol'; \nimport './ERC721Enumerable.sol'; \n\ncontract ERC721Connector is ERC721Metadata, ERC721Enumerable {\n\n    // we deploy connector right away. we want to carry the metadata over \n\n    constructor(string memory name, string memory symbol) ERC721Metadata(name, symbol) {\n\n    }\n\n}",
  "sourcePath": "/Users/jeffreylamothe/Workspace/nft-marketplace/src/contracts/ERC721Connector.sol",
  "compiler": {
    "name": "solc",
    "version": "0.8.13+commit.abaa5c0e.Emscripten.clang"
  },
  "schemaVersion": "3.4.6",
  "updatedAt": "2022-03-22T12:47:50.149Z",
  "devdoc": {
    "kind": "dev",
    "methods": {},
    "version": 1
  },
  "userdoc": {
    "kind": "user",
    "methods": {},
    "version": 1
  }
}