{
  "contractName": "KryptoBird",
  "abi": [
    {
      "inputs": [],
      "stateMutability": "nonpayable",
      "type": "constructor"
    },
    {
      "anonymous": false,
      "inputs": [
        {
          "indexed": true,
          "internalType": "address",
          "name": "owner",
          "type": "address"
        },
        {
          "indexed": true,
          "internalType": "address",
          "name": "approved",
          "type": "address"
        },
        {
          "indexed": true,
          "internalType": "uint256",
          "name": "tokenId",
          "type": "uint256"
        }
      ],
      "name": "Approval",
      "type": "event"
    },
    {
      "anonymous": false,
      "inputs": [
        {
          "indexed": true,
          "internalType": "address",
          "name": "from",
          "type": "address"
        },
        {
          "indexed": true,
          "internalType": "address",
          "name": "to",
          "type": "address"
        },
        {
          "indexed": true,
          "internalType": "uint256",
          "name": "tokenId",
          "type": "uint256"
        }
      ],
      "name": "Transfer",
      "type": "event"
    },
    {
      "inputs": [
        {
          "internalType": "address",
          "name": "_to",
          "type": "address"
        },
        {
          "internalType": "uint256",
          "name": "_tokenId",
          "type": "uint256"
        }
      ],
      "name": "approve",
      "outputs": [],
      "stateMutability": "nonpayable",
      "type": "function"
    },
    {
      "inputs": [
        {
          "internalType": "address",
          "name": "_owner",
          "type": "address"
        }
      ],
      "name": "balanceOf",
      "outputs": [
        {
          "internalType": "uint256",
          "name": "",
          "type": "uint256"
        }
      ],
      "stateMutability": "view",
      "type": "function",
      "constant": true
    },
    {
      "inputs": [
        {
          "internalType": "uint256",
          "name": "",
          "type": "uint256"
        }
      ],
      "name": "kryptoBirds",
      "outputs": [
        {
          "internalType": "string",
          "name": "",
          "type": "string"
        }
      ],
      "stateMutability": "view",
      "type": "function",
      "constant": true
    },
    {
      "inputs": [],
      "name": "name",
      "outputs": [
        {
          "internalType": "string",
          "name": "",
          "type": "string"
        }
      ],
      "stateMutability": "view",
      "type": "function",
      "constant": true
    },
    {
      "inputs": [
        {
          "internalType": "uint256",
          "name": "_tokenId",
          "type": "uint256"
        }
      ],
      "name": "ownerOf",
      "outputs": [
        {
          "internalType": "address",
          "name": "",
          "type": "address"
        }
      ],
      "stateMutability": "view",
      "type": "function",
      "constant": true
    },
    {
      "inputs": [],
      "name": "symbol",
      "outputs": [
        {
          "internalType": "string",
          "name": "",
          "type": "string"
        }
      ],
      "stateMutability": "view",
      "type": "function",
      "constant": true
    },
    {
      "inputs": [
        {
          "internalType": "uint256",
          "name": "index",
          "type": "uint256"
        }
      ],
      "name": "tokenByIndex",
      "outputs": [
        {
          "internalType": "uint256",
          "name": "",
          "type": "uint256"
        }
      ],
      "stateMutability": "view",
      "type": "function",
      "constant": true
    },
    {
      "inputs": [
        {
          "internalType": "address",
          "name": "owner",
          "type": "address"
        },
        {
          "internalType": "uint256",
          "name": "index",
          "type": "uint256"
        }
      ],
      "name": "tokenOfOwnerByIndex",
      "outputs": [
        {
          "internalType": "uint256",
          "name": "",
          "type": "uint256"
        }
      ],
      "stateMutability": "view",
      "type": "function",
      "constant": true
    },
    {
      "inputs": [],
      "name": "totalSupply",
      "outputs": [
        {
          "internalType": "uint256",
          "name": "",
          "type": "uint256"
        }
      ],
      "stateMutability": "view",
      "type": "function",
      "constant": true
    },
    {
      "inputs": [
        {
          "internalType": "address",
          "name": "_from",
          "type": "address"
        },
        {
          "internalType": "address",
          "name": "_to",
          "type": "address"
        },
        {
          "internalType": "uint256",
          "name": "_tokenId",
          "type": "uint256"
        }
      ],
      "name": "transferFrom",
      "outputs": [],
      "stateMutability": "nonpayable",
      "type": "function"
    },
    {
      "inputs": [
        {
          "internalType": "string",
          "name": "_kryptoBird",
          "type": "string"
        }
      ],
      "name": "mint",
      "outputs": [],
      "stateMutability": "nonpayable",
      "type": "function"
    }
  ],
  "bytecode": "0x60806040523480156200001157600080fd5b506040518060400160405280600d81526020017f4b727970746f426972644e4557000000000000000000000000000000000000008152506040518060400160405280600681526020017f4b424952445a00000000000000000000000000000000000000000000000000008152508181816000908051906020019062000098929190620000bc565b508060019080519060200190620000b1929190620000bc565b5050505050620001d0565b828054620000ca906200019b565b90600052602060002090601f016020900481019282620000ee57600085556200013a565b82601f106200010957805160ff19168380011785556200013a565b828001600101855582156200013a579182015b82811115620001395782518255916020019190600101906200011c565b5b5090506200014991906200014d565b5090565b5b80821115620001685760008160009055506001016200014e565b5090565b7f4e487b7100000000000000000000000000000000000000000000000000000000600052602260045260246000fd5b60006002820490506001821680620001b457607f821691505b602082108103620001ca57620001c96200016c565b5b50919050565b611c3b80620001e06000396000f3fe608060405234801561001057600080fd5b50600436106100a95760003560e01c80634f6ccce7116100715780634f6ccce7146101525780636352211e1461018257806370a08231146101b257806395d89b41146101e2578063b20dac5f14610200578063d85d3d2714610230576100a9565b806306fdde03146100ae578063095ea7b3146100cc57806318160ddd146100e857806323b872dd146101065780632f745c5914610122575b600080fd5b6100b661024c565b6040516100c391906110c2565b60405180910390f35b6100e660048036038101906100e1919061118c565b6102de565b005b6100f0610479565b6040516100fd91906111db565b60405180910390f35b610120600480360381019061011b91906111f6565b610486565b005b61013c6004803603810190610137919061118c565b6104a9565b60405161014991906111db565b60405180910390f35b61016c60048036038101906101679190611249565b610559565b60405161017991906111db565b60405180910390f35b61019c60048036038101906101979190611249565b6105d6565b6040516101a99190611285565b60405180910390f35b6101cc60048036038101906101c791906112a0565b610687565b6040516101d991906111db565b60405180910390f35b6101ea61073e565b6040516101f791906110c2565b60405180910390f35b61021a60048036038101906102159190611249565b6107d0565b60405161022791906110c2565b60405180910390f35b61024a60048036038101906102459190611402565b61087c565b005b60606000805461025b9061147a565b80601f01602080910402602001604051908101604052809291908181526020018280546102879061147a565b80156102d45780601f106102a9576101008083540402835291602001916102d4565b820191906000526020600020905b8154815290600101906020018083116102b757829003601f168201915b5050505050905090565b60006102e9826105d6565b90508073ffffffffffffffffffffffffffffffffffffffff168373ffffffffffffffffffffffffffffffffffffffff1603610359576040517f08c379a00000000000000000000000000000000000000000000000000000000081526004016103509061151d565b60405180910390fd5b8073ffffffffffffffffffffffffffffffffffffffff163373ffffffffffffffffffffffffffffffffffffffff16146103c7576040517f08c379a00000000000000000000000000000000000000000000000000000000081526004016103be906115af565b60405180910390fd5b826004600084815260200190815260200160002060006101000a81548173ffffffffffffffffffffffffffffffffffffffff021916908373ffffffffffffffffffffffffffffffffffffffff160217905550818373ffffffffffffffffffffffffffffffffffffffff168273ffffffffffffffffffffffffffffffffffffffff167f8c5be1e5ebec7d5bd14f71427d1e84f3dd0314c0f7b2291e5b200ac8c7c3b92560405160405180910390a4505050565b6000600580549050905090565b610490338261097f565b61049957600080fd5b6104a4838383610a0e565b505050565b60006104b483610687565b82106104f5576040517f08c379a00000000000000000000000000000000000000000000000000000000081526004016104ec90611641565b60405180910390fd5b600760008473ffffffffffffffffffffffffffffffffffffffff1673ffffffffffffffffffffffffffffffffffffffff168152602001908152602001600020828154811061054657610545611661565b5b9060005260206000200154905092915050565b6000808210158015610571575061056e610479565b82105b6105b0576040517f08c379a00000000000000000000000000000000000000000000000000000000081526004016105a7906116dc565b60405180910390fd5b600582815481106105c4576105c3611661565b5b90600052602060002001549050919050565b6000806002600084815260200190815260200160002060009054906101000a900473ffffffffffffffffffffffffffffffffffffffff169050600073ffffffffffffffffffffffffffffffffffffffff168173ffffffffffffffffffffffffffffffffffffffff160361067e576040517f08c379a000000000000000000000000000000000000000000000000000000000815260040161067590611748565b60405180910390fd5b80915050919050565b60008073ffffffffffffffffffffffffffffffffffffffff168273ffffffffffffffffffffffffffffffffffffffff16036106f7576040517f08c379a00000000000000000000000000000000000000000000000000000000081526004016106ee906117da565b60405180910390fd5b600360008373ffffffffffffffffffffffffffffffffffffffff1673ffffffffffffffffffffffffffffffffffffffff168152602001908152602001600020549050919050565b60606001805461074d9061147a565b80601f01602080910402602001604051908101604052809291908181526020018280546107799061147a565b80156107c65780601f1061079b576101008083540402835291602001916107c6565b820191906000526020600020905b8154815290600101906020018083116107a957829003601f168201915b5050505050905090565b600981815481106107e057600080fd5b9060005260206000200160009150905080546107fb9061147a565b80601f01602080910402602001604051908101604052809291908181526020018280546108279061147a565b80156108745780601f1061084957610100808354040283529160200191610874565b820191906000526020600020905b81548152906001019060200180831161085757829003601f168201915b505050505081565b600a8160405161088c9190611836565b908152602001604051809103902060009054906101000a900460ff16156108e8576040517f08c379a00000000000000000000000000000000000000000000000000000000081526004016108df906118bf565b60405180910390fd5b600981908060018154018082558091505060019003906000526020600020016000909190919091509080519060200190610923929190610f86565b5060006001600980549050610938919061190e565b90506109443382610c19565b6001600a836040516109569190611836565b908152602001604051809103902060006101000a81548160ff0219169083151502179055505050565b600061098a82610c3a565b6109c9576040517f08c379a00000000000000000000000000000000000000000000000000000000081526004016109c09061198e565b60405180910390fd5b60006109d4836105d6565b90508073ffffffffffffffffffffffffffffffffffffffff168473ffffffffffffffffffffffffffffffffffffffff161491505092915050565b600073ffffffffffffffffffffffffffffffffffffffff168273ffffffffffffffffffffffffffffffffffffffff1603610a7d576040517f08c379a0000000000000000000000000000000000000000000000000000000008152600401610a7490611a20565b60405180910390fd5b8273ffffffffffffffffffffffffffffffffffffffff16610a9d826105d6565b73ffffffffffffffffffffffffffffffffffffffff1614610abd57600080fd5b816002600083815260200190815260200160002060006101000a81548173ffffffffffffffffffffffffffffffffffffffff021916908373ffffffffffffffffffffffffffffffffffffffff160217905550600360008473ffffffffffffffffffffffffffffffffffffffff1673ffffffffffffffffffffffffffffffffffffffff1681526020019081526020016000206000815480929190610b5f90611a40565b9190505550600360008373ffffffffffffffffffffffffffffffffffffffff1673ffffffffffffffffffffffffffffffffffffffff1681526020019081526020016000206000815480929190610bb490611a69565b9190505550808273ffffffffffffffffffffffffffffffffffffffff168473ffffffffffffffffffffffffffffffffffffffff167fddf252ad1be2c89b69c2b068fc378daa952ba7f163c4a11628f55a4df523b3ef60405160405180910390a4505050565b610c238282610cac565b610c2c81610e6d565b610c368282610eb6565b5050565b6000806002600084815260200190815260200160002060009054906101000a900473ffffffffffffffffffffffffffffffffffffffff169050600073ffffffffffffffffffffffffffffffffffffffff168173ffffffffffffffffffffffffffffffffffffffff161415915050919050565b600073ffffffffffffffffffffffffffffffffffffffff168273ffffffffffffffffffffffffffffffffffffffff1603610d1b576040517f08c379a0000000000000000000000000000000000000000000000000000000008152600401610d1290611afd565b60405180910390fd5b610d2481610c3a565b15610d64576040517f08c379a0000000000000000000000000000000000000000000000000000000008152600401610d5b90611b8f565b60405180910390fd5b816002600083815260200190815260200160002060006101000a81548173ffffffffffffffffffffffffffffffffffffffff021916908373ffffffffffffffffffffffffffffffffffffffff1602179055506001600360008473ffffffffffffffffffffffffffffffffffffffff1673ffffffffffffffffffffffffffffffffffffffff1681526020019081526020016000206000828254610e069190611baf565b92505081905550808273ffffffffffffffffffffffffffffffffffffffff16600073ffffffffffffffffffffffffffffffffffffffff167fddf252ad1be2c89b69c2b068fc378daa952ba7f163c4a11628f55a4df523b3ef60405160405180910390a45050565b6005805490506006600083815260200190815260200160002081905550600581908060018154018082558091505060019003906000526020600020016000909190919091505550565b600760008373ffffffffffffffffffffffffffffffffffffffff1673ffffffffffffffffffffffffffffffffffffffff1681526020019081526020016000208190806001815401808255809150506001900390600052602060002001600090919091909150556001600760008473ffffffffffffffffffffffffffffffffffffffff1673ffffffffffffffffffffffffffffffffffffffff16815260200190815260200160002080549050610f6b919061190e565b60086000838152602001908152602001600020819055505050565b828054610f929061147a565b90600052602060002090601f016020900481019282610fb45760008555610ffb565b82601f10610fcd57805160ff1916838001178555610ffb565b82800160010185558215610ffb579182015b82811115610ffa578251825591602001919060010190610fdf565b5b509050611008919061100c565b5090565b5b8082111561102557600081600090555060010161100d565b5090565b600081519050919050565b600082825260208201905092915050565b60005b83811015611063578082015181840152602081019050611048565b83811115611072576000848401525b50505050565b6000601f19601f8301169050919050565b600061109482611029565b61109e8185611034565b93506110ae818560208601611045565b6110b781611078565b840191505092915050565b600060208201905081810360008301526110dc8184611089565b905092915050565b6000604051905090565b600080fd5b600080fd5b600073ffffffffffffffffffffffffffffffffffffffff82169050919050565b6000611123826110f8565b9050919050565b61113381611118565b811461113e57600080fd5b50565b6000813590506111508161112a565b92915050565b6000819050919050565b61116981611156565b811461117457600080fd5b50565b60008135905061118681611160565b92915050565b600080604083850312156111a3576111a26110ee565b5b60006111b185828601611141565b92505060206111c285828601611177565b9150509250929050565b6111d581611156565b82525050565b60006020820190506111f060008301846111cc565b92915050565b60008060006060848603121561120f5761120e6110ee565b5b600061121d86828701611141565b935050602061122e86828701611141565b925050604061123f86828701611177565b9150509250925092565b60006020828403121561125f5761125e6110ee565b5b600061126d84828501611177565b91505092915050565b61127f81611118565b82525050565b600060208201905061129a6000830184611276565b92915050565b6000602082840312156112b6576112b56110ee565b5b60006112c484828501611141565b91505092915050565b600080fd5b600080fd5b7f4e487b7100000000000000000000000000000000000000000000000000000000600052604160045260246000fd5b61130f82611078565b810181811067ffffffffffffffff8211171561132e5761132d6112d7565b5b80604052505050565b60006113416110e4565b905061134d8282611306565b919050565b600067ffffffffffffffff82111561136d5761136c6112d7565b5b61137682611078565b9050602081019050919050565b82818337600083830152505050565b60006113a56113a084611352565b611337565b9050828152602081018484840111156113c1576113c06112d2565b5b6113cc848285611383565b509392505050565b600082601f8301126113e9576113e86112cd565b5b81356113f9848260208601611392565b91505092915050565b600060208284031215611418576114176110ee565b5b600082013567ffffffffffffffff811115611436576114356110f3565b5b611442848285016113d4565b91505092915050565b7f4e487b7100000000000000000000000000000000000000000000000000000000600052602260045260246000fd5b6000600282049050600182168061149257607f821691505b6020821081036114a5576114a461144b565b5b50919050565b7f4572726f72203a2063616e7420617070726f766520746f2063757272656e742060008201527f6f776e6572000000000000000000000000000000000000000000000000000000602082015250565b6000611507602583611034565b9150611512826114ab565b604082019050919050565b60006020820190508181036000830152611536816114fa565b9050919050565b7f43757272656e742063616c6c657220646f6573206e6f74206f776e207468652060008201527f746f6b656e000000000000000000000000000000000000000000000000000000602082015250565b6000611599602583611034565b91506115a48261153d565b604082019050919050565b600060208201905081810360008301526115c88161158c565b9050919050565b7f4572726f72203a206f776e657220646f6573206e6f742068617665207468617460008201527f206d616e79204e46547300000000000000000000000000000000000000000000602082015250565b600061162b602a83611034565b9150611636826115cf565b604082019050919050565b6000602082019050818103600083015261165a8161161e565b9050919050565b7f4e487b7100000000000000000000000000000000000000000000000000000000600052603260045260246000fd5b7f696e646578206973206f7574206f6620626f756e647300000000000000000000600082015250565b60006116c6601683611034565b91506116d182611690565b602082019050919050565b600060208201905081810360008301526116f5816116b9565b9050919050565b7f746865206f776e657220666f7220746869732071756572792069732030000000600082015250565b6000611732601d83611034565b915061173d826116fc565b602082019050919050565b6000602082019050818103600083015261176181611725565b9050919050565b7f4572726f72203a206f776e657220616464726573732063616e206e6f7420657160008201527f75616c2027302700000000000000000000000000000000000000000000000000602082015250565b60006117c4602783611034565b91506117cf82611768565b604082019050919050565b600060208201905081810360008301526117f3816117b7565b9050919050565b600081905092915050565b600061181082611029565b61181a81856117fa565b935061182a818560208601611045565b80840191505092915050565b60006118428284611805565b915081905092915050565b7f4572726f72203a204b727970746f4269726420616c726561647920657869737460008201527f7300000000000000000000000000000000000000000000000000000000000000602082015250565b60006118a9602183611034565b91506118b48261184d565b604082019050919050565b600060208201905081810360008301526118d88161189c565b9050919050565b7f4e487b7100000000000000000000000000000000000000000000000000000000600052601160045260246000fd5b600061191982611156565b915061192483611156565b925082821015611937576119366118df565b5b828203905092915050565b7f746f6b656e20646f6573206e6f74206578697374000000000000000000000000600082015250565b6000611978601483611034565b915061198382611942565b602082019050919050565b600060208201905081810360008301526119a78161196b565b9050919050565b7f4572726f72203a207472616e7366657220746f2074686520302061646472657360008201527f7300000000000000000000000000000000000000000000000000000000000000602082015250565b6000611a0a602183611034565b9150611a15826119ae565b604082019050919050565b60006020820190508181036000830152611a39816119fd565b9050919050565b6000611a4b82611156565b915060008203611a5e57611a5d6118df565b5b600182039050919050565b6000611a7482611156565b91507fffffffffffffffffffffffffffffffffffffffffffffffffffffffffffffffff8203611aa657611aa56118df565b5b600182019050919050565b7f43616e206e6f74206d696e7420746f2061646472657373202730270000000000600082015250565b6000611ae7601b83611034565b9150611af282611ab1565b602082019050919050565b60006020820190508181036000830152611b1681611ada565b9050919050565b7f4120746f6b656e207769746820746869732069642068617320616c726561647960008201527f206265656e206d696e7465640000000000000000000000000000000000000000602082015250565b6000611b79602c83611034565b9150611b8482611b1d565b604082019050919050565b60006020820190508181036000830152611ba881611b6c565b9050919050565b6000611bba82611156565b9150611bc583611156565b9250827fffffffffffffffffffffffffffffffffffffffffffffffffffffffffffffffff03821115611bfa57611bf96118df565b5b82820190509291505056fea264697066735822122017d93abe6b458722ac860fa336079c96726989b32e2adcc82eaa6fa4e1960b0264736f6c634300080d0033",
  "immutableReferences": {},
  "source": "// SPDX-License-Identifier: MIT\npragma solidity >0.8.0; \n\nimport './ERC721Connector.sol'; \n\ncontract KryptoBird is ERC721Connector {\n\n    // array to store our nfts\n    string[] public kryptoBirds; \n\n    mapping(string => bool) _kryptoBirdExist; \n\n    function mint(string memory _kryptoBird) public {\n\n        require(!_kryptoBirdExist[_kryptoBird], \"Error : KryptoBird already exists\");\n        // deprecated : uint _id = kryptoBirds.push(_kryptoBird); \n        kryptoBirds.push(_kryptoBird); \n        uint _id = kryptoBirds.length - 1;\n        _mint(msg.sender, _id); // invokes ERC721\n        _kryptoBirdExist[_kryptoBird] = true;\n    }\n\n    constructor() ERC721Connector('KryptoBirdNEW', 'KBIRDZ') {\n\n    }\n}",
  "sourcePath": "/Users/jeffreylamothe/Workspace/nft-marketplace/src/contracts/KryptoBirdz.sol",
  "compiler": {
    "name": "solc",
    "version": "0.8.13+commit.abaa5c0e.Emscripten.clang"
  },
  "schemaVersion": "3.4.6",
  "updatedAt": "2022-03-22T12:48:01.053Z",
  "networkType": "ethereum",
  "devdoc": {
    "kind": "dev",
    "methods": {},
    "version": 1
  },
  "userdoc": {
    "kind": "user",
    "methods": {},
    "version": 1
  }
}